:020000040800F2
:1000000000800120E50300083504000835040008DD
:10001000350400083504000835040008000000001D
:10002000000000000000000000000000350400088F
:1000300035040008000000003504000835040008FD
:1000400000000000350400083504000835040008ED
:10005000350400083504000835040008350400089C
:1000600035040008350400083504000800000000CD
:100070000000000000000000000000000000000080
:10008000000000000000000035040008000000002F
:10009000000000000000000000000000350400081F
:1000A000350400083504000835040008350400084C
:1000B000350400083504000800000000350400087D
:1000C000350400083504000835040008350400082C
:1000D00035040008000000000000000000000000DF
:1000E000350400083504000835040008000000004D
:1000F0000000000000000000000000000000000000
:10010000000000003504000800000000350400086D
:1001100000000000000000000000000000000000DF
:1001200000000000000000000000000000000000CF
:1001300000000000000000000000000000000000BF
:10014000000000000000000000000000350400086E
:10015000000000000000000000000000000000009F
:10016000350400083504000800000000000000000D
:10017000000000000000000000000000000000007F
:10018000000000003504000800000000000000002E
:04019000350400082A
:1001A00010B5054C237833B9044B13B10448AFF3B1
:1001B00000800123237010BD6C00002000000000AF
:1001C0006412000808B5034B1BB103490348AFF3A1
:1001D000008008BD000000007000002064120008CC
:1001E00001F0FF01102A2BDB10F0070F08D010F8E8
:1001F000013B013A8B422DD010F0070F42B3F6D1EC
:10020000F0B441EA012141EA014122F007047FF004
:1002100000070023F0E80256083C85EA010586EA5B
:10022000010685FA47F5A3FA87F586FA47F6A5FA97
:1002300087F68EB9EED1F0BC01F0FF0102F00702A3
:1002400032B110F8013B013A83EA010313B1F8D14E
:100250000020704701387047002D06BF354603382F
:10026000073815F0010F07D1013015F4807F02BF68
:10027000013015F4C03F0130F0BC0138704700BFB9
:1002800080B500AF064B1A68064B1B681344064A3C
:100290001360054B1B681946044800F0FFF8FEE7A1
:1002A0000000002004000020880000207C120008CC
:1002B00080B586B000AFF860B9607A6000237B61DA
:1002C0000AE0AFF300800146BB685A1CBA60CAB2AC
:1002D0001A707B6901337B617A697B689A42F0DB33
:1002E0007B6818461837BD4680BD80B586B000AF24
:1002F000F860B9607A6000237B6109E0BB685A1C32
:10030000BA601B781846AFF300807B6901337B61CC
:100310007A697B689A42F1DB7B6818461837BD46DC
:1003200080BD80B483B000AF78604FF0FF331846D3
:100330000C37BD465DF8047B704780B483B000AFD6
:10034000786039603B684FF400525A6000231846C9
:100350000C37BD465DF8047B704780B483B000AFB6
:100360007860012318460C37BD465DF8047B704762
:1003700080B485B000AFF860B9607A600023184699
:100380001437BD465DF8047B7047000080B584B02B
:1003900000AF7860114B1B68002B02D10F4B104A45
:1003A0001A600E4B1B68FB600C4B1A687B68134489
:1003B0006A46934207D900F03FF802460C231360C7
:1003C0004FF0FF3306E0054B1A687B681344034A7D
:1003D0001360FB6818461037BD4680BD8C000020B6
:1003E000A00000200D4885460D480E490E4A002306
:1003F00002E0D458C4500433C4188C42F9D30B4AD9
:100400000B4C002301E013600432A242FBD3AFF394
:10041000008000F017F8FFF733FFFEE700800120AF
:10042000000000206C0000202C1300086C0000204D
:100430009C000020FEE70000014B1868704700BFD9
:100440000800002070B50D4E0D4CA41BA410002513
:10045000A54209D10B4E0C4C00F004FFA41BA410C4
:100460000025A54205D170BD56F8253098470135C5
:10047000EEE756F8253098470135F2E724130008D7
:10048000241300082413000828130008024403461C
:10049000934200D1704703F8011BF9E70FB40A4BF0
:1004A00013B51C6824B1A36913B9204600F04EF8B7
:1004B00005AB049AA1680193204600F055F902B0FB
:1004C000BDE8104004B0704708000020002310B5BC
:1004D0000446C0E90033836081814366C281C0E97C
:1004E00004338361194608225C30FFF7CFFF054BC8
:1004F0006362054BA362054BE362054B24622363F1
:1005000010BD00BFC50C0008E70C00081F0D000857
:10051000430D0008014900F085B800BF1D10000818
:1005200070B54A1E682555430E4605F1740100F06A
:1005300097F8044640B10021C0E900160C30A060D5
:1005400005F16802FFF7A2FF204670BD836910B570
:10055000044633BBC0E912330365124B124A1B68D1
:100560008262984204BF0123836100F01FF860603B
:10057000204600F01BF8A060204600F017F800228B
:10058000E06004216068FFF7A1FF01220921A06853
:10059000FFF79CFF02221221E068FFF797FF01237B
:1005A000A36110BD8C12000815050008F8B51B4B9F
:1005B0001E68B369074613B93046FFF7C7FF4836D0
:1005C000D6E90134013B03D5336833B13668F7E728
:1005D000B4F90C506DB16834F4E704213846FFF7E4
:1005E0009FFF30600028F1D10C233B600446204679
:1005F000F8BD0B4B6566C4E90055A560C4E9033539
:10060000C4E905550822294604F15C00FFF73EFFC6
:10061000C4E90D55C4E91255E9E700BF8C12000882
:100620000100FFFF2DE9F8438046894600F14804A8
:10063000002614B93046BDE8F883D4E90175013FBE
:1006400001D52468F5E7AB89012B07D9B5F90E3040
:10065000013303D029464046C84706436835EEE7D4
:1006600070B5CD1C25F0030508350C2D38BF0C25C1
:10067000002D064601DBA94203D90C23336000207C
:1006800070BD00F06BFD214A1468214691B9204CE1
:1006900023681BB9304600F005FB20602946304630
:1006A00000F000FB431C24D10C233360304600F0E3
:1006B00056FDE4E70B685B1B18D40B2B0FD90B60BE
:1006C000CD50CC18304600F04AFD04F10B00231D3C
:1006D00020F00700C31AD3D05A42E250D0E78C4230
:1006E0004B6816BF636013600C46EBE70C46496825
:1006F000CCE7C41C24F00304A04205D0211A3046E4
:1007000000F0D0FA0130CFD02560DBE79000002068
:10071000940000209368013B002B10B4936008DA2A
:100720009469A34201DB0A2903D15DF8044B00F070
:100730000DBB1368581C1060197008465DF8044B17
:100740007047F8B506460F461446D518AC4201D19D
:10075000002007E03A4614F8011B3046FFF7DAFFA5
:10076000431CF3D1F8BD00002DE9F04F0C469DB0BD
:1007700017461D46064618B183690BB9FFF7E6FE1A
:100780007C4B9C4258D17468A38918075ED52369B5
:10079000002B5BD00023099320238DF829303023D0
:1007A0008DF82A3003954FF0010BB846454615F8F1
:1007B000013B0BB1252B54D1B8EB070A0BD05346A4
:1007C0003A4621463046FFF7BCFF013000F0C280B8
:1007D000099B5344099398F80030002B00F0BA802D
:1007E00000234FF0FF32CDE90523049307938DF8E2
:1007F00053301A93A846052218F8011B5E48FFF7EC
:10080000EFFC049B78BBD90644BF20228DF853200F
:100810001A0744BF2B228DF853202A782A2A2AD07F
:10082000079AA84600200A25414611F8013B303BB3
:10083000092B69D960B324E0504B9C4201D1B468C4
:10084000A2E74F4B9C4208BFF4689DE72146304623
:1008500000F0E0FA00289DD04FF0FF301DB0BDE859
:10086000F08FA846A2E7444A801A0BFA00F018431A
:1008700004904546BEE7039A111D12680391002AB1
:1008800001DB079204E0524243F002030792049313
:1008900098F800302E2B0ED198F801302A2B38D141
:1008A000039B1A1D1B680392002BB8BF4FF0FF3348
:1008B00008F102080593334D98F8001003222846EA
:1008C000FFF78EFC40B14023401B03FA00F0049B6D
:1008D000034308F10108049398F800102A488DF8A2
:1008E0002810062208F10107FFF77AFC002837D00C
:1008F000264B1BBB039B073323F0070308330393EB
:10090000099B4B44099350E705FB023201208846BE
:100910008AE7002308F10108059319460A25404695
:1009200010F8012B303A092A03D9002BC3D00591C6
:10093000C1E705FB012101238046F0E703AB0093EB
:100940002246134B04A93046AFF30080B0F1FF3FBD
:100950008146D5D1A3895B063FF57EAF09987DE737
:1009600003AB009322460A4B04A9304600F088F8F6
:10097000ECE700BFB0120008F0120008D012000827
:1009800090120008F6120008FA1200080000000099
:10099000430700082DE9F04791461F468A680B6916
:1009A000DDF820809342B8BF1346C9F8003091F8B3
:1009B000432006460C4612B10133C9F800302368C3
:1009C000990642BFD9F800300233C9F800302568D3
:1009D00015F0060507D104F1190AE368D9F80020DB
:1009E0009B1AAB4228DC94F843302268003318BFCE
:1009F000012392062DD404F1430239463046C04704
:100A0000013020D02368E568D9F8002003F0060300
:100A1000042B08BFAD1AA36822690CBF25EAE5754F
:100A200000259342C4BF9B1AED184FF000091A34F9
:100A30004D451AD1002008E0012352463946304680
:100A4000C047013003D14FF0FF30BDE8F0870135DA
:100A5000C3E7E1185A1C302081F84300224494F87F
:100A6000451082F843100233C5E701232246394678
:100A70003046C0470130E6D009F10109D8E700004F
:100A80002DE9F04301F1430C0C46097E85B06E2937
:100A90001746064698460C9A00F0B38022D8632980
:100AA00036D00AD8002900F0B980582900F0838098
:100AB00004F1420584F8421032E0642901D069292A
:100AC000F6D120681368050603F104012AD51B68D6
:100AD0001160002B03DA2D225B4284F843206F481B
:100AE0000A2239E0732900F09D8008D86F2920D0B0
:100AF0007029DDD1236843F02003236003E07529CA
:100B000017D07829D4D1782384F84530644855E04B
:100B10001368191D1B68116004F1420584F8423006
:100B200001238CE01B68116010F0400F18BF1BB24E
:100B3000CFE713682568181D1060280601D51B68CB
:100B400002E06806FBD51B8854486F2914BF0A22AF
:100B50000822002184F843106568A560002DC0F2CA
:100B60009580216821F004012160002B3DD1002DEA
:100B700040F08E806546082A0BD12368DB0708D534
:100B8000236962689A42DEBF302305F8013C05F113
:100B9000FF35ACEB05032361CDF800803B4603AA8B
:100BA00021463046FFF7F6FE01304DD14FF0FF30C1
:100BB00005B0BDE8F083394884F845101368216812
:100BC0001D1D1B6815600A060BD5CA0744BF41F0FE
:100BD000200121601BB9226822F02002226010222D
:100BE000B7E74D0648BF9BB2EFE76546B3FBF2F1AE
:100BF00002FB1133C35C05F8013D0B460029F5D11A
:100C0000B9E7136825686169181D106028061B681C
:100C100001D5196002E06A06FBD519800023236123
:100C20006546B9E71368191D11601D6862680021E7
:100C30002846FFF7D5FA08B1401B6060636823615E
:100C4000002384F84330A7E723692A463946304613
:100C5000C0470130AAD023689B0713D4E068039BE8
:100C60009842B8BF1846A3E701234A4639463046A2
:100C7000C04701309AD00135E368039A9B1AAB4212
:100C8000F2DCEBE7002504F11909F5E7002BACD104
:100C9000037884F8423004F142056CE70113000840
:100CA0001213000838B5064C002305460846236099
:100CB000FFF76CFB431C02D1236803B12B6038BDE6
:100CC0009800002010B50C46B1F90E1000F096FA0D
:100CD0000028ABBF636DA3891B1823F48053ACBFFE
:100CE0006365A38110BD2DE9F0411F468B89DB05AB
:100CF00005460C46164605D502230022B1F90E1012
:100D000000F0B6F9A389B4F90E1023F48053A3813F
:100D100032463B462846BDE8F04100F069B810B5C0
:100D20000C46B1F90E1000F0A3F9431CA38915BFBE
:100D3000606523F4805343F48053A38118BFA381DB
:100D400010BDB1F90E1000F0D3B80000F8B50E4692
:100D50001446054618B183690BB9FFF7F7FB214B21
:100D60009C422AD16C68A369A360A3891A072ED577
:100D7000236963B323692068C01A6369F6B28342AA
:100D8000374604DC2146284600F048F928BBA36812
:100D9000013BA36023685A1C22601E706369013006
:100DA000834204D0A389DB0719D50A2E17D1214627
:100DB000284600F033F990B10FE00B4B9C4201D173
:100DC000AC68D0E7094B9C4208BFEC68CBE72146F2
:100DD000284600F01FF80028CCD04FF0FF373846E7
:100DE000F8BD00BFB0120008D01200089012000831
:100DF00038B5074C054608461146002222601A46BF
:100E0000FFF773FA431C02D1236803B12B6038BD8E
:100E100098000020324B70B51D6806460C4625B17F
:100E2000AB6913B92846FFF791FB2E4B9C420FD1BB
:100E30006C68B4F90C309AB215072CD4D00611D4D2
:100E40000922326043F04003A3814FF0FF303EE0BF
:100E5000254B9C4201D1AC68EBE7244B9C4208BF78
:100E6000EC68E6E7510712D5616B41B104F1440328
:100E7000994202D0304600F073F900236363A389DE
:100E800023F02403A3810023636023692360A389E3
:100E900043F00803A38123694BB9A38903F42073AA
:100EA000B3F5007F03D02146304600F017F9A28940
:100EB00012F001030CD00023A36063695B42A361BD
:100EC000236953B9B4F90C3013F08000BAD170BD66
:100ED000920758BF6369A360F2E70020F7E700BFFD
:100EE00008000020B0120008D0120008901200087C
:100EF00038B5064C0023054608462360FFF711FA73
:100F0000431C02D1236803B12B6038BD9800002038
:100F10008A892DE9F041054610070C4658D44B68E4
:100F2000002B05DC0B6C002B02DC0020BDE8F081FF
:100F3000E66A002EF9D0002312F480522F68216A4D
:100F40002B6032D0606DA3895A0705D56368C01A3B
:100F5000636B0BB1236CC01A00230246E66A216A58
:100F60002846B047431CA38906D129681D2948D8C3
:100F7000294ACA40D60744D500226260D9042269B2
:100F8000226004D5421C01D12B6803B96065616BF6
:100F90002F600029C9D004F14403994202D02846A9
:100FA00000F0DEF800206063C0E701232846B04768
:100FB000411CC8D12B68002BC5D01D2B01D0162B8E
:100FC00001D12F60B1E7A38943F04003A381ADE7CE
:100FD0000F69002FA9D093070E6808BF4B690F60F7
:100FE00018BF0023A6EB07088B60B8F1000F9CDD4B
:100FF00043463A46216AA66A2846B047002806DCDE
:10100000A38943F04003A3814FF0FF308EE70744EC
:10101000A8EB0008E9E700BF0100402038B50B69E4
:1010200005460C46DBB118B183690BB9FFF78EFAA0
:101030000C4B9C4209D16C68B4F90C307BB1214651
:101040002846BDE83840FFF763BF074B9C4201D1FB
:10105000AC68F1E7054B9C4208BFEC68ECE7002068
:1010600038BD00BFB0120008D0120008901200086E
:1010700038B5074C054608461146002222601A463C
:10108000FFF776F9431C02D1236803B12B6038BD0A
:101090009800002070B50E46B1F90E10002996B0E8
:1010A00014461D4607DA00232B60B3891A0610D4B4
:1010B0004FF480630EE06A4600F0B2F80028F2DBDD
:1010C000019A02F47042A2F500535A425A412A6032
:1010D000EEE740230020236016B070BD8B8973B506
:1010E0009D0706460C4607D504F14703236023619C
:1010F0000123636102B070BD01AB6A46FFF7CAFF0E
:10110000009905463046FFF7ABFA48B9B4F90C3000
:101110009A05EFD423F0030343F00203A381E3E72E
:101120000D4BB362A389206043F08003A381009B31
:101130006361019B20615BB1B4F90E10304600F091
:1011400081F828B1A38923F0030343F00103A381AD
:10115000A3891D43A581CDE7150500087047704799
:1011600038B50546002945D051F8043C0C1F002B2A
:10117000B8BFE418FFF7F2FF1F4A1368104633B9EF
:10118000636014602846BDE83840FFF7E8BFA3421B
:101190000CD921686218934204BF1A685B686360C7
:1011A00004BF521822600460ECE713465A680AB183
:1011B000A242FAD919685818A0420BD120680144FC
:1011C000581882421960DDD1106852685A60014493
:1011D0001960D7E702D90C232B60D3E720682118C8
:1011E0008A4204BF11685268626004BF0918216016
:1011F0005C60C7E738BD00BF9000002038B5074CE1
:10120000054608461146002222601A46FFF750F8AC
:10121000431C02D1236803B12B6038BD9800002025
:1012200038B5074C00230546084611462360FFF7F2
:1012300084F8431C02D1236803B12B6038BD00BF82
:101240009800002038B5064C002305460846236068
:10125000FFF783F8431C02D1236803B12B6038BD2C
:1012600098000020F8B500BFF8BC08BC9E46704747
:0C127000F8B500BFF8BC08BC9E467047F3
:10127C00526573756C74203D2025640A00000000D3
:10128C000C00002000000000000000000000000026
:10129C000000000000000000000000000000000042
:1012AC000000000000000000000000000000000032
:1012BC000000000000000000000000000000000022
:1012CC000000000000000000000000000000000012
:1012DC000000000000000000000000000000000002
:1012EC0000000000232D302B2000686C4C0065663C
:1012FC00674546470030313233343536373839415B
:10130C004243444546003031323334353637383970
:08131C00616263646566000074
:04132400C5010008F7
:04132800A101000817
:10132C0060F0FFFFC80000000C000020000000006F
:10133C00B0120008D0120008901200080000000043
:10134C000000000000000000000000000000000091
:10135C000000000000000000000000000000000081
:10136C000000000000000000000000000000000071
:10137C000000000000000000000000000000000061
:0C138C0000000000000000000000000055
:04000005080003E507
:00000001FF
